:020000040000FA
:10000000989D0020850200008D0200008F020000F4
:100010009102000093020000950200000000000021
:100020000000000000000000000000009702000037
:10003000990200000000000071D200001778000053
:100040009F0200009F0200009F0200009F0200002C
:100050009F0200009F0200009F0200009F0200001C
:100060009F0200009F0200009F0200009F0200000C
:100070009F0200009F0200006D1300009F0200001D
:100080002D5E00009F0200009F0200009F02000002
:100090009F0200009F0200009F0200009F020000DC
:1000A0009F0200009F0200009F0200009F020000CC
:1000B0009F0200009F0200009F0200009F020000BC
:1000C0009F0200009F0200009F0200009F020000AC
:1000D0009F0200009F0200009F0200009F0200009C
:1000E0009F0200009F0200009F0200009F0200008C
:1000F0009F0200009F0200009F0200009F0200007C
:100100009F0200009F0200006D5500009F0200004A
:100110009F0200009F0200009F0200009F0200005B
:100120009F0200009F0200009F020000CB1300000E
:10013000DB1300009F0200009F0200009F020000EE
:100140009F0200009F0200009F0200009F0200002B
:100150009F0200009F0200009F0200009F0200001B
:100160009F0200009F0200009F0200009F0200000B
:100170009F0200009F0200009F0200009F020000FB
:10018000EB1300009F02000000F002F800F06BF893
:100190000AA090E8000C82448344AAF10107DA45E2
:1001A00001D100F060F8AFF2090EBAE80F0013F0C9
:1001B000010F18BFFB1A43F001031847C4EF0000FA
:1001C000E4EF00000A444FF0000C10F8013B13F07C
:1001D000070408BF10F8014B1D1108BF10F8015BA0
:1001E000641E05D010F8016B641E01F8016BF9D193
:1001F00013F0080F1EBF10F8014BAD1C0C1B09D1EA
:100200006D1E58BF01F801CBFAD505E014F8016B5B
:1002100001F8016B6D1EF9D59142D6D370470000ED
:100220000023002400250026103A28BF78C1FBD8FF
:10023000520728BF30C148BF0B60704764290CF0DB
:10024000D98475290CF0D684002070471FB50CF0B6
:1002500087FF0400002000210DF0D6FD401C6060E7
:100260001FBD10B510BD0CF08DFF1146FFF7EEFF5E
:1002700000F009FC0CF0ABFF03B4FFF7F2FF03BC86
:100280000CF0ACFF0A4880470A480047FEE7FEE74B
:10029000FEE7FEE7FEE7FEE7FEE7FEE7FEE7FEE736
:1002A0007047000004480549054A064B70470000A6
:1002B000810300008901000098750020989D0020AE
:1002C000987D0020987D00203D48006840F48070B3
:1002D0003B499839C1F898000846D0F8980020F0BA
:1002E0008060C1F898007047354AB4321168A1F5B2
:1002F0007842023A1AB1B2F5803F04D101E0012000
:1003000003E0022001E0002000BF00BF704710B5ED
:10031000FFF7EAFF04464CB1012C02D0022C03D1B6
:1003200003E0FFF7D1FF02E000BF00BF00BF00BF46
:1003300010BD00BF2249B831096801F00100002852
:10034000F8D01F49091F096821F001011C4A983A99
:10035000C2F8941000BF1A49B831096801F00200D0
:100360000028F8D01649096821F48051144A983AB7
:10037000C2F898101146896C21F48031916470475D
:1003800010B5FFF7D6FFFFF7C2FF0E48006840F434
:1003900000700C490860FFF783FF10BD0A480B4945
:1003A0000860C0100A4908600A4908600A490860E4
:1003B000C0000A4908600A4908600A490860704795
:1003C0009880034014ED00E00020A1070000002009
:1003D00004000020080000200C0000201000002075
:1003E000140000201800002010B50446F5A1FB48B9
:1003F00001F034F810BD10B50446F9A1F74801F03A
:100400002DF810BD08B5FCA1F44801F027F806E06E
:1004100005F067FA6A4608210A200AF0F9FEF7E7B4
:1004200008B5FBA1ED4801F019F808E004F000F967
:1004300004F064FD6A4608210A200AF0E9FEF5E7A7
:1004400008B5F8A1E54801F009F80DE0022002F036
:1004500045FF032003F03EFB032003F03BFF6A4609
:1004600008210A200AF0D4FEF0E708B5F2A1DB4823
:1004700000F0F4FF6A46082114200AF0C9FE08BD06
:1004800010B505F01DFE05F0E1FE06F042F810BDC6
:1004900070B5002400250026ED4805F09DFF0646B6
:1004A000EC4805F099FF0446EA48801D05F094FFEA
:1004B0000546FFF7E5FF032C00D100BF24B1012C56
:1004C00003D0022C08D103E007E006F0D6F904E0DF
:1004D000E1480068804700E000BF00BF70BD10B574
:1004E0009AB019A80BF00CF80446DC480068042800
:1004F00058DADA48006830B1012814D0022822D036
:10050000032840D12FE00120D54908700121D448AB
:1005100081602246D3A168460CF058FB6946AF487B
:1005200000F09CFF30E00120CD4908700121CC484B
:1005300081612246D3A168460CF048FB6946A74872
:1005400000F08CFF20E00120C54908700121C4485B
:1005500001612246D3A168460CF038FB69469F48EA
:1005600000F07CFF10E00120BD4908700121BC486B
:1005700001622246D3A168460CF028FB69469748E1
:1005800000F06CFF00E000BF00BF05F023FBB349A3
:100590000968481CC11700EB91718910A0EB81011B
:1005A000AE4A11601AB010BD08B5002400252DE038
:1005B00068460AF0A5FF044645F25550CA4908802E
:1005C000FFF78DFF05F0EFFDFFF762FF6A4604219C
:1005D00004F114000AF01CFE6A46042104F116001E
:1005E0000AF016FE6A46042104F128000AF010FE03
:1005F000FFF73BFF68460AF083FF0546281BBB490F
:1006000008706A46082164200AF002FED0E710B59F
:1006100098B0044617A8032100220592CDE90621CF
:10062000089005204FF400713322B14BCDE901321F
:10063000CDE903100E200023AE4AAFA10090B148CF
:1006400009F00DFBBDF85C0048B1BDF85C20AEA11F
:100650000AA80CF0BBFA0AA9604800F0FFFE17A830
:10066000032100220592CDE90621089010464FF49F
:1006700000713322AC4BCDE90132CDE903100C20DF
:100680000023AA4AAAA10090AB4809F0E8FABDF8F5
:100690005C0048B1BDF85C20A8A10AA80CF096FA4D
:1006A0000AA94E4800F0DAFE17A80321002205929D
:1006B000CDE90621089010464FF400713322A64B75
:1006C000CDE90132CDE903100B200023A34AA4A1F8
:1006D0000090A54809F0C3FABDF85C0048B1BDF828
:1006E0005C20A2A10AA80CF071FA0AA93B4800F00C
:1006F000B5FE17A8032100220592CDE90621089036
:1007000010464FF4007133229F4BCDE90132CDE901
:1007100003100A2000239D4A9DA100909F4809F0E4
:100720009EFABDF85C0048B1BDF85C209CA10AA807
:100730000CF04CFA0AA9294800F090FE17A80321F2
:1007400000220592CDE90621089010464FF4007171
:1007500033229B4BCDE90132CDE903100920002360
:10076000984A99A100909B4809F079FABDF85C007D
:1007700048B1BDF85C2098A10AA80CF027FA0AA994
:10078000164800F06BFE17A8032100220592CDE960
:100790000621089010464FF400713322964BCDE9A4
:1007A0000132CDE9031008200023944A94A100905F
:1007B000964809F054FABDF85C0010B1BDF85C2011
:1007C00026E12DE1464C595461736B2072756E6EB3
:1007D000696E672E2E2E0D0A0000000000E0113019
:1007E000414F43435461736B2072756E6E696E673F
:1007F0002E2E2E0D0A00000043616E5461736B2093
:1008000072756E6E696E672E2E2E0D0A0000000046
:1008100059435461736B2072756E6E696E672E2E2C
:100820002E0D0A00596B5461736B2072756E6E69E0
:100830006E672E2E2E0D0A00584D5F5461736B208B
:1008400072756E6E696E672E2E2E0D0A0000000006
:10085000943F0020363F0020280000203C0000206C
:10086000F0520020474D59434C582073656E643A4E
:100870002074696D653A20256C75207469636B730B
:100880000D0A000054584A59434C582073656E6451
:100890002C2074696D653A20256C75207469636B32
:1008A000730D0A00474D594B434D442073656E64E8
:1008B0002C2074696D653A20256C75207469636B12
:1008C000730D0A0054584A594B434D442073656ECA
:1008D000642C2074696D653A20256C7520746963F9
:1008E0006B730D0A0000000030FF1A30400000203A
:1008F000240F0020A90500004D61696E205461732A
:100900006B000000740200204D61696E5461736BCE
:10091000206372656174696F6E206572726F723ADE
:100920002025640D0A000000241700204104000067
:10093000596B205461736B003C030020596B546168
:10094000736B206372656174696F6E206572726F7C
:10095000723A2025640D0A00241F002021040000A3
:100960005943205461736B000404002059435461BF
:10097000736B206372656174696F6E206572726F4C
:10098000723A2025640D0A00242700200504000087
:1009900043616E205461736B00000000CC040020A2
:1009A00043616E5461736B206372656174696F6E2D
:1009B000206572726F723A2025640D0A00000000F3
:1009C000242F0020F7030000414F4343205461735C
:1009D0006B00000094050020414F43435461736B4A
:1009E000206372656174696F6E206572726F723A0E
:1009F0002025640D0A00000024370020E9030000D0
:100A0000464C59205461736B000000005C060020C6
:100A1000F8A10AA80CF0DAF80AA9FE4800F01EFDB9
:100A200017A9FD4809F035FABDF85C0048B1BDF8DA
:100A30005C20FAA10AA80CF0C9F80AA9F54800F050
:100A40000DFD18B010BD30B5024622F07F40401EAB
:100A50004FF0E021486148171F21002804DBCB0636
:100A60001C0EF74B1C5406E0CB061D0EF54B00F098
:100A70000F04241F1D5500BF00204FF0E0218861A6
:100A80000720086130BD10B58AB006F0DAF806F02C
:100A9000A7F800F048FC00F05CFCEBA1EE4800F089
:100AA000DDFCEEA1DB4800F0D9FCF0A1F34800F03A
:100AB000D5FCF3A1F64800F0D1FC09A806F046FFEA
:100AC000F44800684FF47A71B0FBF1F42046FFF768
:100AD000BAFF09A8032100220592CDE9062108905A
:100AE00010464FF400713322EB4BCDE90132CDE9D2
:100AF000031005200023E94AE9A10090C64809F047
:100B0000AEF809A807F0BEF900200AB010BD2DE923
:100B1000F04100244FF0C845E54EE64F0021E6487D
:100B200005F0EDFB4AF6AA21E44805F0E8FB0021B8
:100B3000E248523805F0E3FB0021E048543805F064
:100B4000DEFB45F25551DD48103805F0D8FB002199
:100B5000DA480E3805F0D3FBD949D848203805F0DB
:100B6000DFFB0121D548223805F0C9FBD549D34820
:100B7000283805F0D5FB0021D048243805F0BFFB0C
:100B80004FF48761CD480A3805F0B9FB40F21A41AD
:100B9000CA48083805F0B3FB4FF47F71C748801F7F
:100BA00005F0ADFB40F21A41C448001F05F0A7FB59
:100BB0003221C248001D05F0A2FB5621BF48801D0E
:100BC00005F09DFB0021BD480C3805F098FB002185
:100BD000BA48801E05F093FB45F25551B6481638C9
:100BE00005F08DFB41F26F41B348183805F087FBE3
:100BF0001421B1480C3805F082FB4FF41671AE4851
:100C00000A3805F07CFB45F25551AB480E3805F02B
:100C100076FB45F25551A848801E05F070FB4FF653
:100C2000FF71A548801D05F06AFB0021A248001D48
:100C300005F065FB1021A048801F05F060FB43F222
:100C400039619D48083005F05AFB43F63C119A483B
:100C50000A3005F054FB45F65E319748103005F038
:100C60004EFB45F65E319448123005F048FB45F6E0
:100C70005E3191480C3005F042FB45F65E318E48FE
:100C80000E3005F03CFB43F64B418B482C3005F011
:100C900036FB43F64B4188482E3005F030FB43F6D7
:100CA0004B418548303005F02AFB43F64B418248E2
:100CB000323005F024FB43F64B417F48343005F0D9
:100CC0001EFB43F64B417C48363005F018FB43F6DB
:100CD0004B417948383005F012FB43F64B417648DA
:100CE0003A3005F00CFB43F64B4173483C3005F0BD
:100CF00006FB43F64B4170483E3005F000FB43F6DF
:100D00004B416D48403005F0FAFA43F64B416A48D2
:100D1000423005F0F4FA43F64B416748443005F0A1
:100D2000EEFA43F64B416448463005F0E8FA43F6E4
:100D30004B416148483005F0E2FA43F64B415E48CA
:100D40004A3005F0DCFA43F64B415B484C3005F085
:100D5000D6FA43F64B4158484E3005F0D0FA43F6E8
:100D60004B415548503005F0CAFA43F64B415248C2
:100D7000523005F0C4FA43F64B414F48543005F069
:100D8000BEFA43F649214C48563005F0B8FA43F60E
:100D900049214948583005F0B2FA43F649214648FE
:100DA0005A3005F0ACFA43F6492143485C3005F06F
:100DB000A6FA43F6492140485E3005F0A0FA43F612
:100DC00049213D48603005F09AFA43F649213A48F6
:100DD000623005F094FA43F649213748643005F053
:100DE0008EFA43F649213448663005F088FA43F616
:100DF000492169E0464C595461736B206372656107
:100E000074696F6E206572726F723A2025640D0AE4
:100E10000000000000E01130AC0100204661696C68
:100E2000656420746F2064656C6574652041707022
:100E30005461736B53746172743A2025640D0A0017
:100E400000E400E018ED00E02D2D2D61726D2043CF
:100E5000582D2D2D0D0A000000E014302D2D2D6190
:100E6000726D2044432D2D0D0A0000002D2D2D61A3
:100E7000726D2054584A2D2D2D0D0A0000E01230BD
:100E80002D2D2D61726D20475A2D2D0D0A00000069
:100E900000E0153000000020240700200F060000AD
:100EA000417070205461736B207374617274000020
:100EB0000000206400004064A23F0020823F002028
:100EC000A050050058A64F2A274805F018FA43F607
:100ED00049212548801C05F012FA43F64921224891
:100EE000001D05F00CFA43F649211F48801D05F04E
:100EF00006FA43F649211C48083005F000FA43F68B
:100F0000492119480A3005F0FAF943F649211648F3
:100F10000C3005F0F4F943F6492113480E3005F082
:100F2000EEF943F649211048103005F0E8F943F690
:100F300049210D48123005F0E2F943F649210A48EB
:100F4000143005F0DCF943F649210748163005F066
:100F5000D6F9BDE8F08110B506F072FD0AF000FB8D
:100F600006F07FFD10BD00000A400020024601EBA4
:100F7000022398B27047024611B1012904D101E061
:100F8000D0B203E0100A01E0D0B200BF00BF70474A
:100F90002DE9F0410446002500260027AC4600203C
:100FA0001D4616460F46A4464FEA0C6808EB074854
:100FB00008EB062808EB0500BDE8F0812DE9F043B9
:100FC0000446002500260027AC46A84600201D4602
:100FD00016460F46A4464FEA0C6909EB074909EB90
:100FE000062909EB05084046BDE8F0832DE9F041EC
:100FF00092B0034600BF002200BF06E09C5C0025C3
:1010000002AE06EBC20630C6521C082AF6DB029C72
:1010100027060024049D2E042546A4463C461CEBCE
:1010200005077441069D2E023D1C66414FF0200CC1
:10103000DDE90884B8EB0C0C74F1000401D2012442
:1010400000E000242F1946EBE476DDE90A544FEA6C
:10105000046444EA15244FEA05657F196641DDE919
:101060000C54240444EA15442D047F196641DDE93B
:101070000E54240244EA156C2D027C1946EB0C0632
:10108000DDE9105764197E41CDE90046DDE9000134
:1010900012B0BDE8F081024631B1012906D0022923
:1010A00007D003290AD107E0D0B209E0C2F3072034
:1010B00006E0C2F3074003E0100E01E0D0B200BF2B
:1010C00000BF70470246505C7047024622FA01F0AA
:1010D00000F00100704701228A4003681A43026051
:1010E000704701238B4002689A4302607047028870
:1010F0000B8803800A80704770B504460D460022B5
:101100001346204629460DF0FDF802D24FF0FF307D
:1011100070BD00221346204629460DF09FF801D1EC
:101120000020F5E70120F3E72DE9F04704460D46DE
:101130009046994600221346204629460DF0E2F8D3
:101140000CD285F0004542464B46204629460CF01D
:1011500059F906460F4687F0004707E042464B46DE
:10116000204629460CF04EF906460F4630463946D1
:10117000BDE8F08710B502460B460021002000BFF5
:1011800002E0545C6040491C9942FAD310BD10B58E
:1011900002460B460021002000BF03E032F8114058
:1011A0006040491C9942F9D310BD10B502460B4668
:1011B00000211068012103E052F821406040491CE1
:1011C0009942F9D310BD10B502460B46002100200C
:1011D00000BF03E0545C0444E0B2491C9942F9D3D7
:1011E00010BD10B502460B460021002000BF03E0F1
:1011F000545C0444A0B2491C9942F9D310BD30B5E7
:1012000002460B46002100244FF6FF7000BF11E09C
:10121000555C684000240AE000F001052DB140084B
:1012200041F221054540A8B200E04008641C082CAA
:10123000F2D3491C9942EBD330BDF0B502460024ED
:10124000002341F221054FF6FF7013E012F8014B25
:1012500080EA042000230BE000F400461EB185EA7A
:101260004006B0B203E04FF6FF7606EA40005B1C92
:10127000082BF1D30E00A1F10101E7D1F0BDF0B5CB
:101280008DB03022174901A80BF0CAFD0020009054
:10129000002400250026002713A1081D0A22002192
:1012A0000BF040FDC7B210A00188ADF800108078A7
:1012B0008DF8020000BF0CE001A901EB8400694633
:1012C0000BF02AFE054615B9601CC6B203E0601C8F
:1012D000C4B20C2CF0DB00BF39463046FFF746FEA7
:1012E0000DB0F0BD8CEA00004F637420203720322F
:1012F0003032340010B50AF099FF222109200AF09B
:10130000A0FF09200BF000F822210A200AF099FF23
:101310000A200AF0F9FF22211E200AF092FF1E2067
:101320000AF0F2FF10BD10B500203449C86645F23E
:1013300055503349088040003249088000F06EF86B
:10134000FFF7D8FF002003F076FE012003F073FEC4
:1013500010BD10B500202C490870012048700020F5
:10136000887000F0D6F804F01CFA10BD2748006819
:10137000401C2649086001202349C87008460079AE
:10138000401C087101212048007800EBC000204A71
:1013900002EB800081601C48407800EBC00002EB4B
:1013A0008000816100BF01204FF0402108610E20C4
:1013B000002807DB00F01F0201219140154A430974
:1013C00042F8231000BF00BF704710B509200AF093
:1013D000C9FF002003F042FF10BD10B50A200AF03B
:1013E000C1FF012003F03AFF10BD10B545F2555082
:1013F000094908801E200AF0B5FF10BD0080034097
:1014000030FF1A30F08F1E30B4410020440000201D
:10141000F052002080E200E020F11A308820F649E6
:1014200008807720F549A1F810014FF4AD70F44918
:1014300008808820F3490880772008804FF4AD7039
:10144000F14908808820F1490880442008804FF441
:10145000AD70EF4908807047018070470246002058
:1014600003E00B5C1380431C98B20B5C13B1B0F526
:101470007A7FF6DB704710B50346002000BF03E01B
:101480000C5C1C80441CA0B29042F9DB10BD38B546
:1014900004466A460021204609F0BAFE38BD0146DE
:1014A00000BF08880028FCD00888C0B2704730B55B
:1014B00005460B461446002205E02846FFF7EFFFDD
:1014C0009854501C82B2A242F7DB30BD10B50146E1
:1014D000002000220023012902D1CE4ACE4B0FE08A
:1014E000022902D1CD4ACE4B0AE0032902D1CD4ACE
:1014F000CD4B05E0042902D1CC4ACD4B00E010BD14
:10150000147804F001040CB9188800E0002000BF32
:10151000F5E710B54FF48A71C6480BF0D5FC4FF4CF
:101520008271C5480BF0AEFC1021C4480BF0AAFC38
:101530001021C3480BF0A6FC1621C2480BF0A2FCF8
:101540004FF48A71C0480BF0BFFC4FF48271BF4862
:101550000BF098FC1021BE480BF094FC1021BD4804
:101560000BF090FC1E21BC480BF08CFC4FF4047176
:10157000BA480BF087FC2021B9480BF0A5FC3821B4
:10158000B8480BF0A1FCCF21B7480BF09DFC4021DF
:10159000B6480BF077FC4FF48071B5480BF072FC45
:1015A0004FF48071B3480BF06DFC0A20AA4988768D
:1015B0004FF4404088804FF480404881AE4800217D
:1015C00001808170A421AD480BF07EFC8621AC48DF
:1015D0000BF058FC2021AB480BF076FC4FF48971DE
:1015E000A9480BF071FC4FF48961A8480BF04AFC44
:1015F00010BD10B50446022C11D18E480F308D4A13
:10160000811A0F380BF060FC8A48D0F810110F30A7
:101610000BF038FC00208749C1F8100128E0032CAA
:1016200011D189480F30884A811A0F380BF04CFCD1
:101630008548D0F810110F300BF024FC00208249AF
:10164000C1F8100114E0012C11D18C4811308B4AE3
:10165000811A11380BF038FC8848D0F8A0101130EE
:101660000BF010FC00208549C1F8A00000E010BD7F
:1016700000BFFCE770B5002481488079A52878D0A8
:1016800007DC68B1A12853D0A22873D0A32872D157
:101690005BE1C12870D0C2286FD0C428F7D180E2A6
:1016A000774A917A507AFFF761FC76490880744D49
:1016B000AB7B6A7B297BE87AFFF76AFC714948605B
:1016C000AB7C6A7C297CE87BFFF778FC6D498860FD
:1016D000AB7D6A7D297DE87CFFF770FC6949C860B5
:1016E000AB7E6A7E297EE87DFFF768FC654908616C
:1016F000AB7F6A7F297FE87EFFF760FC6149486124
:1017000095F8223095F8212095F82010E87FFFF712
:1017100055FC5C49886195F8263095F8252095F8A8
:10172000241095F82300FFF749FC5649C8619EE252
:101730005348437A027AC1790020FFF729FC044616
:10174000204640F24722A11A944240D01DDC40F2CC
:101750004322A0EB0201904226D00FDCB0F5A07F1F
:101760001CD0A0F24110D0B1A0F20110002842D14B
:1017700016E0E5E1A0E079E201E209E2012917D0F3
:1017800002291AD0032936D11CE0A1F1270006282E
:1017900031D2DFE800F021262B7F84898AE089E0BE
:1017A00055203B49088085E0AA203949088081E01E
:1017B00040F25520364908807CE040F2AA203449A6
:1017C000088077E040F255303149088072E040F2FD
:1017D000AA302F4908806DE040F255402C4908801E
:1017E00068E040F2AA402A49088063E040F2555080
:1017F000274908805EE05CE010E1123000E0123022
:1018000040E4123010E1143040E4143010E11130A3
:1018100040E4113030F3123020F2123030F3143043
:1018200020F2143030F3113020F2113030F3153043
:1018300020F21530084200201C43002020440020E4
:101840003044002040440020584400206C450020D3
:10185000704600208046002090460020AE460020C2
:10186000C0480020E048002018490020E749002037
:10187000274A0020274B002048000020284C002049
:10188000CC4C0020544D0020744D0020864E00208A
:101890008046143040F2AA50FE4908800AE040F227
:1018A0005570FC49088005E040F2AA70F9490880AB
:1018B00000E000BF00BFDAE1F748437A027AC1795D
:1018C0000020FFF765FB044640F21160211A8442B4
:1018D00032D013DC40F21121A4EB01008C4222D063
:1018E00005DCA4F21110E0B111282BD11AE0B0F5FB
:1018F000807F19D0A0F2111020BB19E040F2DF2246
:10190000881A91421BD005DC112916D0B1F5FF7F52
:1019100018D113E0B0F58D7F12D0A0F21B1088B95A
:101920000FE010E00FE00EE00020DC4988700AE0D4
:101930000120DA49887006E005E004E003E002E0F7
:1019400001E000E000BF00BF91E1D348437A027A92
:10195000C1790020FFF71CFB044640F21141601AD8
:101960008C426FD019DC40F22221A4EB01008C42A2
:101970004ED008DCA4F2111018B311282ED0B0F507
:10198000807F7AD137E0EF284FD0B0F5807F5AD0F2
:10199000A0F21110002870D162E040F21122811AE9
:1019A00090426BD008DC112879D0B0F5807F67D0E9
:1019B000B0F5007F61D18CE011296FD022295CD174
:1019C000AEE00220B64948710121B448407800EBEE
:1019D000C000B44A02EB80000162AFE00320B049CE
:1019E00048710121AD48407800EBC000AD4A02EBE0
:1019F00080000162A2E00420A94948710121A748A2
:101A0000407800EBC000A74A02EB8000016295E03D
:101A10000520A34948710121A048407800EBC0008F
:101A2000A04A02EB8000016288E006209C494871D0
:101A300001219A48407800EBC0009A4A02EB8000EE
:101A400001627BE01DE00720954948710121934820
:101A5000407800EBC000934A02EB800001626DE029
:101A600008208F49487101218C48407800EBC00064
:101A70008C4A02EB8000016260E05EE036E00EE03E
:101A80001AE009208649487101218448407800EB1A
:101A9000C000844A02EB800001624FE033E00A207C
:101AA0007F49487101217D48407800EBC0007D4AA4
:101AB00002EB8000016241E00B207949487101216D
:101AC0007648407800EBC000764A02EB8000016265
:101AD00034E00C207249487101217048407800EBD5
:101AE000C000704A02EB8000016227E00D206C49C3
:101AF000487101216948407800EBC000694A02EB57
:101B0000800001621AE00E20654948710121634896
:101B1000407800EBC000634A02EB800001620DE0F8
:101B20000F205F49487101215C48407800EBC000FC
:101B30005C4A02EB8000016200E000BF00BF96E05B
:101B40005548007A02280AD15348437A027AC1796B
:101B50000020FFF71DFA044600BF00BF0EE04E480C
:101B6000007A03280AD14C4DEB7A6A7A297AE8790F
:101B7000FFF70EFA044600BF00BF00BF77E0464DF6
:101B8000EB7A6A7A297AE879FFF702FA04466EE07E
:101B9000414DEB7A6A7A297AE879FFF7F9F9044638
:101BA00065E03D48437A027AC1790020FFF7F0F9F9
:101BB0000446A4F6AA60D0B3B0F5506F03D0A0F6E7
:101BC0001150A8BB19E01B20374948710846002175
:101BD000C0F806108172AA21C1720721401DFFF7CB
:101BE000F2FA3149087301212C48007800EBC0005B
:101BF0002C4A02EB8000016136E01B202A49487123
:101C000008460021C0F806108172BB21C17207216D
:101C1000401DFFF7D8FA2449087301211F480078B6
:101C200000EBC0001F4A02EB800001611CE000E0F5
:101C300019E014201C49487108460021C0F806101C
:101C40008172AA21C1720721401DFFF7BCFA164913
:101C5000087301211148007800EBC000114A02EB23
:101C60008000016100E000BF00BF00E000BF00BFD6
:101C700070BD70B50446002600250C480078002889
:101C80007DD10B48008845F25551884215D125F089
:101C9000F0000FE080461430CC4C0020B44100200E
:101CA00068530020F0520020485300204B000020D1
:101CB00010511A3040F0300509E0FE4800884AF61D
:101CC000AA21884203D125F0F00040F0C005FA486F
:101CD000008845F25551884203D125F00F00C51CFC
:101CE00009E0F54800884AF6AA21884203D125F088
:101CF0000F0040F00C05EB20F04908709020487070
:101D00000B208870C221ED48C170ED49488901213E
:101D1000FFF731F9E9490871E94948890021FFF7DE
:101D20002AF9E649487100208871F721E348C1711A
:101D3000E349488A0121FFF71EF9E0490872E049AA
:101D4000488A0021FFF717F9DC494872DC49888A84
:101D50000121FFF710F9D9498872D949888A0021F1
:101D6000FFF709F9D549C872D549C88A0121FFF79B
:101D700002F9D2490873D249C88A002100E05EE026
:101D8000FFF7F9F8CD494873CD48007B8873CC48FC
:101D9000407BC873CA48807B0874C948C07B4874BC
:101DA00000208874C648807E81F83000084680F89C
:101DB0002F507B210830FFF7EAF906460021304614
:101DC000FFF7D9F8BD4981F8FE0001213046FFF741
:101DD000D2F8BA4981F8FF00332C24D10220B84947
:101DE000887108460089401C08810889C11700EBEA
:101DF00091418913A0EB8131B14A1181104681795B
:101E0000408961F38F301146488108460189408935
:101E100061F30D00114648814FF48072A749A9482B
:101E2000FFF729FB07E0882C05D14FF48072A34906
:101E3000A548FFF720FB0120A449087070BDEB20E6
:101E4000A3490870902048700B208870C221A048D8
:101E5000C1709B4948890121FFF78DF89C490871A1
:101E6000974948890021FFF786F899494871002071
:101E70008871F7219648C1719149488A0121FFF77D
:101E80007AF8934908728E49488A0021FFF773F85F
:101E90008F4948728A49888A0121FFF76CF88C497A
:101EA00088728749888A0021FFF765F88849C872D7
:101EB0008349C88A0121FFF75EF885490873804984
:101EC000C88A0021FFF757F8814948738148017992
:101ED0007F4880F879107F4801797D4880F8261086
:101EE0007B210830FFF753F9064600213046FFF703
:101EF00042F8774981F8FE0001213046FFF73BF8B0
:101F0000734981F8FF00332C24D101206C4988717A
:101F100008460089401C08810889C11700EB9141DF
:101F20008913A0EB8131664A11811046817940897D
:101F300061F38F301146488108460189408961F379
:101F40000D00114648814FF4807261495D48FFF7EA
:101F500092FA07E0882C05D14FF480725C495A4808
:101F6000FFF789FA00205949087000BF66E770B58D
:101F7000044600250B2058490870C120487050497C
:101F800088880121FEF7F7FF534988704C498888FB
:101F90000021FEF7F0FF5049C87000200871392178
:101FA0004D4841714649488A0121FEF7E4FF4A49FC
:101FB00088714349488A0021FEF7DDFF4649C87110
:101FC0003F49888A0121FEF7D6FF434908723C4900
:101FD000888A0021FEF7CFFF3F4948723849C88AF6
:101FE0000121FEF7C8FF3C4988723549C88A0021A3
:101FF000FEF7C1FF3849C8723148807B0874304809
:10200000007F487433480079401C88752C48C07E96
:102010008007000E88762A48407C08772F4890F881
:10202000420081F829002D4890F8490000F00F0186
:102030002A4890F8490061F31F10274981F82A00C7
:10204000274890F80F0181F82F00254890F81201D9
:1020500081F83000224890F8130181F831002048BF
:1020600090F81F0181F832001D4890F8270181F88F
:1020700033001B4890F8280181F83400184890F884
:10208000460181F83500164890F8650181F8360060
:1020900014480178104880F83B10124841780E48E7
:1020A00080F83C100F4881780B4880F83D101C21C7
:1020B000801D19E010511A3020521A30274A002092
:1020C0009046002000E0143000E011304B0000206A
:1020D000274B0020B4410020E7490020EC540020A9
:1020E0007853002048000020FFF751F805460021F2
:1020F0002846FEF740FFFE4981F83E0001212846B0
:10210000FEF739FFFA4981F83F00222C2FD1032036
:10211000F849087008464088401C48804888C11724
:1021200000EB91418913A0EB8131F24A51801046B6
:102130000178808861F38F30114688800846418895
:10214000808861F30D0011468880EB4890F81201F9
:102150006FEAD012E84890F8121162F3C71180F8C4
:1021600012114022E249E548FFF785F906E0772C95
:1021700004D14022DE49E248FFF77DF970BD01B588
:10218000CAB0002008900790069005904A98112840
:1021900008D1DA4808904FF48272DA4909A80AF0A7
:1021A000FAFD0DE04A98662808D1D54808904FF40A
:1021B0008272D54909A80AF0EEFD01E04BB000BDDE
:1021C000BDF8320007904AF204320799881A91420A
:1021D0007ED052DC4AF24A12A1EB0200914278D042
:1021E00024DC4AF24312A1EB0200914272D015DCCA
:1021F00049F69A22A1EB020091426CD006DC332909
:102200006AD0662969D0772968D1FDE3A0F2A6607B
:1022100090B3012863D00228F6D19FE007285DD251
:10222000DFE800F05CABB3BBC4CCD400BB2857D014
:1022300010DCB72855D006DC01286FD002286ED0FC
:102240000328E1D1E6E0B8286AD0B92869D0BA28D5
:10225000DAD1F8E040F2B712811A904279D006DC68
:10226000BC2877D0BD2876D0BE28CDD1FBE001298F
:1022700072D00229C8D103E254E0B0F5017F6CD0DE
:102280001BDC40F2FD12A0EB0201904274D009DC8D
:10229000A0F1FE000728C2D2DFE800F0F8F7F6F55B
:1022A000F4F3F2000729BAD2DFE811F0180099031D
:1022B000B903D703F503FA03FF0340F20E22811A94
:1022C000904272D019DCA0F205200928A7D209E0BB
:1022D0008FE283E049E024E1F1E3F1E3F1E32CE074
:1022E000B5E09FE0DFE810F0EE03F303F8033004FD
:1022F000ED03ED035704F2042805062976D006DC29
:10230000022974D0032973D0042985D1FDE39329D0
:102310006FD0A1F29741002993D12DE16AE071E0DD
:1023200084E087E079480D99016043F233307849C1
:102330000880A0206F49887632E374480D99416087
:1023400043F233307249103108800A206949887697
:10235000F2E78BE17FE082E08DE1ABE36B480D9922
:10236000816055206B490880E6E768480D99C16097
:10237000AA2068490880DFE713E364480D990161EA
:1023800040F2552063490880D6E760480D994161C5
:1023900040F2AA205F490880CEE75C480D99816130
:1023A00040F255305B490880C6E7F0E357480D9985
:1023B000C16140F2AA3057490880BDE753480D99E2
:1023C000016240F2554053490880B5E74F480D99E6
:1023D000416240F2AA404F490880ADE74B480D9951
:1023E000816240F255504B490880A5E7FAE3FAE3D1
:1023F000FAE35FE045480D99C16240F2AA504549B1
:10240000088099E741480D99016340F255704149B0
:10241000088091E73D480D99416340F2AA703D491B
:10242000088089E739480D99816385E737480D9918
:10243000C16381E735480D99016440202D494874F6
:102440000820087778E731480D99416474E72F48F0
:102450000D99816470E72D480D99C1646CE72B4894
:102460000D99016568E79DF83400069006980128EB
:102470000DD002280FD00A2811D00B2817D112E056
:10248000E3E0D1E0C0E0AFE09EE08DE07CE01F48FB
:102490000D9941650CE01D480D99816508E01B48C8
:1024A0000D99C16504E019480D99016600E000BF6F
:1024B00000BF41E709A8C07C049009A8807C039074
:1024C00009A8407C02909DF83400019002A90EC931
:1024D000FEF75EFD059010490598884220D10B4813
:1024E0000D99416643F2333009490880A02015E078
:1024F000E7490020904600207853002000E0143087
:1025000000E011301C4300206C450020AE46002046
:1025100000F41E3080461430AAAA5555F749887633
:102520000AE709A8C07C049009A8807C039009A848
:10253000407C02909DF83400019002A90EC9FEF77C
:1025400027FD0590EE490598884214D1ED480D9974
:102550008166C9210898FEF77FFFC9210898FEF718
:102560007BFF0A20FEF793FF40F6AA30E649088079
:102570000320E249C876DFE640F65530E24908809C
:102580000020DE49C876D7E6DE480D99C1660220F4
:10259000DE4948710121DE48407800EBC000DD4A89
:1025A00002EB80000162C7E6D6480D99016703205F
:1025B000D64948710121D648407800EBC000D54A81
:1025C00002EB80000162B7E6CE480D994167042016
:1025D000CE4948710121CE48407800EBC000CD4A79
:1025E00002EB80000162A7E6C6480D9981670520CD
:1025F000C64948710121C648407800EBC000C54A71
:1026000002EB8000016297E6BE480D99C167062083
:10261000BE4948710121BE48407800EBC000BD4A68
:1026200002EB8000016287E6B6480D99C0F8801081
:102630000720B64948710121B548407800EBC00039
:10264000B44A02EB8000016276E6AE480D99C0F80C
:1026500084100820AD4948710121AD48407800EB55
:10266000C000AC4A02EB8000016265E6A5480D9906
:10267000C0F8881060E6A3480D99C0F88C105BE69E
:1026800009A8C07C049009A8807C039009A8407C1C
:1026900002909DF83400019002A90EC9FEF778FC63
:1026A00005909D4A0598811A904268D026DC9B4A85
:1026B000A0EB0201904248D013DC994AA0EB020142
:1026C000904233D006DC9749084428B3B0F1807FAC
:1026D0004AD126E0B1F1807F2DD0B1F1007F43D106
:1026E0002EE0B1F1807F35D0B1F1007F37D0B1F16C
:1026F000407F3AD0B1F1806F78D13BE021F07F404C
:1027000090BB08160B2871D2DFE800F0703E4348FA
:102710004D52575C61666B007A480D99C0F8901075
:1027200065E078480D99C0F8941060E075480D99FF
:10273000C0F898105BE073480D99C0F89C1056E003
:1027400070480D99C0F8A01051E06E480D99C0F87E
:10275000A4104CE06B480D99C0F8A81047E06948F8
:102760000D99C0F8AC1042E040E066480D99C0F801
:10277000B0103CE063480D99C0F8B41037E06148F0
:102780000D99C0F8B81032E05E480D99C0F8BC1041
:102790002DE05C480D99C0F8C01028E059480D990B
:1027A000C0F8C41023E057480D99C0F8C8101EE0C7
:1027B00054480D99C0F8CC1019E052480D99C0F852
:1027C000D01014E04F480D99C0F8D4100FE04D48D8
:1027D0000D99C0F8D8100AE04A480D99C0F8DC10ED
:1027E00005E048480D99C0F8E01000E000BF00BFC8
:1027F000A2E509A8C07C049009A8807C039009A8E0
:10280000407C02909DF83400019002A90EC9FEF7A9
:10281000BFFB0590444A0598811A904268D026DC97
:10282000424AA0EB0201904248D013DC404AA0EBA0
:102830000201904233D006DC3E49084428B3B0F18F
:10284000807F4AD126E0B1F1807F2DD0B1F1007FA9
:1028500043D12EE0B1F1807F35D0B1F1007F37D088
:10286000B1F1407F3AD0B1F1806F36D13BE021F039
:102870007F4090BB08160B282FD2DFE800F08F5D59
:1028800062676C71767B80858A001E480D99C0F85E
:10289000E41084E01B480D99C0F8E8107FE0194867
:1028A0000D99C0F8EC107AE016480D99C0F8F010B8
:1028B00075E014480D99C0F8F41070E011480D99B6
:1028C000C0F8F8106BE00F480D99C0F8FC1066E0F6
:1028D0000C480D99C0F8001161E05FE009480D99BE
:1028E000C0F804115BE007480D99C0F8081156E0E4
:1028F00004480D99C0F80C1151E0000090460020EA
:10290000AAAA1111AE460020804614306853002058
:10291000B4410020F0520020AAAA550BAAAA5506DD
:10292000AAAA55035655AAFEAAAAAA0BAAAAAA069B
:10293000AAAAAA03565555FEF7480D99C0F81011DA
:102940002DE0F5480D99C0F8141128E0F2480D99D2
:10295000C0F8181123E0F0480D99C0F81C111EE0D2
:10296000ED480D99C0F8201119E0EB480D99C0F819
:10297000241114E0E8480D99C0F828110FE0E6484A
:102980000D99C0F82C110AE0E3480D99C0F83011F8
:1029900005E0E1480D99C0F8341100E000BF00BF28
:1029A00015E2DD480D99C0F838110120DB49487166
:1029B00008460021C0F806108172AA21C1720721C1
:1029C000401DFEF700FCD54908730121D44800786A
:1029D00000EBC000D34A02EB80000161F7E1CE4872
:1029E0000D99C0F83C110220CC49487108460021DD
:1029F000C0F806108172AA21C1720721401DFEF79E
:102A0000E2FBC649087300E053E30121C4480078A3
:102A100000EBC000C34A02EB80000161F1E3BE4855
:102A20000D99C0F840110320BC49487108460021A7
:102A3000C0F806108172AA21C1720721401DFEF75D
:102A4000C2FBB64908730121B548007800EBC0000D
:102A5000B44A02EB80000161D3E3AF480D99C0F89E
:102A600044110420AD49487108460021C0F8061001
:102A70008172AA21C1720721401DFEF7A4FBA7495C
:102A800008730121A648007800EBC000A54A02EBBC
:102A900080000161B5E3A0480D99C0F84811B0E38A
:102AA0009D480D99C0F84C11ABE39B480D99C0F8B7
:102AB0005011A6E398480D99C0F85411A1E36EE2B5
:102AC00098E39DE394480D99C0F8581199E3924812
:102AD0000D99C0F85C1194E309A8C07C049009A882
:102AE000807C039009A8407C02909DF834000190FE
:102AF00002A90EC9FEF74CFA05900598B0F1AA3F5D
:102B00000BD08949084468B100E0F4E1B0F1885F76
:102B10000DD0B0F1085F14D10EE07F480D99C0F8D8
:102B200060110FE07C480D99C0F864110AE07A4802
:102B30000D99C0F8681105E077480D99C0F86C113F
:102B400000E000BF00BF5CE309A8C07C049009A8B6
:102B5000807C039009A8407C02909DF8340001908D
:102B600002A90EC9FEF714FA05900598B0F1AA3F24
:102B700003D06D49084458B904E067480D99C0F87E
:102B8000701106E064480D99C0F8741101E0F9E095
:102B900000BF00BF35E309A8C07C049009A8807C71
:102BA000039009A8407C02909DF83400019002A98E
:102BB0000EC9FEF7EDF905905C4A0598811A90421E
:102BC00058D01CDC5A4AA0EB020190423ED00CDCEB
:102BD0005849084458B3B0F1807F2DD0B0F1007F40
:102BE00071D12EE0B5E1F3E018E1B1F1807F32D090
:102BF000B1F1007F34D0B1F1407F64D135E0B1F163
:102C0000806F4BD009DCB1F1807F38D0B1F1007F0B
:102C10003AD0B1F1407F56D13BE0B1F1A06F42D044
:102C2000B1F1C06F44D0B1F1E06F4CD145E03A480A
:102C30000D99C0F8781147E037480D99C0F87C111C
:102C400042E035480D99C0F880113DE032480D99B9
:102C5000C0F8841138E030480D99C0F8881133E08D
:102C60002D480D99C0F88C112EE02B480D99C0F815
:102C7000901129E028480D99C0F8941124E02648C5
:102C80000D99C0F898111FE023480D99C0F89C11C8
:102C90001AE021480D99C0F8A01115E01E480D99C1
:102CA000C0F8A41110E01C480D99C0F8A8110BE061
:102CB00019480D99C0F8AC1106E017480D99C0F8F5
:102CC000B01101E0FFE700BF00BF9AE209A8C07C95
:102CD000049009A8807C039009A8407C02909DF88C
:102CE0003400019002A90EC9FEF752F9059005982B
:102CF000B0F1AA3F03D00C49084450B904E006489B
:102D00000D99C0F8B41105E003480D99C0F8B81149
:102D100000E000BF00BF74E2AE4600204853002030
:102D2000B4410020F052002056555544AAAAAA08E2
:102D3000AAAAAA04565555FE09A8C07C049009A861
:102D4000807C039009A8407C02909DF8340001909B
:102D500002A90EC9FEF71CF90590FE490598084422
:102D600018B1B0F1A06F0AD104E0FB480D99C0F88A
:102D7000BC1105E0F8480D99C0F8C01100E000BF93
:102D800000BF3EE209A8C07C049009A8807C0390A3
:102D900009A8407C02909DF83400019002A90EC958
:102DA000FEF7F6F805900598B0F1AA3F03D0EB497D
:102DB000084450B904E0E8480D99C0F8C41105E092
:102DC000E5480D99C0F8C81100E000BF00BF18E247
:102DD00009A8C07C049009A8807C039009A8407CC5
:102DE00002909DF83400019002A90EC9FEF7D0F8B8
:102DF00005900598B0F1AA3F03D0D849084450B9CE
:102E000004E0D5480D99C0F8CC1105E0D2480D99E1
:102E1000C0F8D01100E000BF00BFF2E109A8C07CFB
:102E2000049009A8807C039009A8407C02909DF83A
:102E30003400019002A90EC9FEF7AAF80590C84A0D
:102E40000598811A90423AD013DCC64AA0EB0201E1
:102E5000904225D006DCC4490844B8B1B0F1807F67
:102E600046D118E0B1F1807F1FD0B1F1007F3FD192
:102E700020E0B1F1807F27D0B1F1007F29D0B1F1FE
:102E8000407F2BD0B1F1806F32D12CE0B2480D9948
:102E9000C0F8D4112DE0B0480D99C0F8D81128E041
:102EA000AD480D99C0F8DC1123E0AB480D99C0F88E
:102EB000E0111EE0A8480D99C0F8E41119E0A648F9
:102EC0000D99C0F8E81114E0A3480D99C0F8EC1171
:102ED0000FE0A1480D99C0F8F0110AE09E480D9945
:102EE000C0F8F41105E09C480D99C0F8F81100E015
:102EF00000BF00BF85E109A8C07C049009A8807CC0
:102F0000039009A8407C02909DF83400019002A92A
:102F10000EC9FEF73DF805900598B0F1AA3F06D01E
:102F20008E49084440B1B0F1884F0FD109E08A487A
:102F30000D99C0F8FC110AE087480D99C0F80012FD
:102F400005E085480D99C0F8041200E000BF00BFFD
:102F500057E109A8C07C049009A8807C039009A8C7
:102F6000407C02909DF83400019002A90EC9FEF742
:102F70000FF805900598B0F1AA3F03D077490844AF
:102F800050B904E074480D99C0F8081205E0724881
:102F90000D99C0F80C1200E000BF00BF31E109A894
:102FA000407C04909DF8340003900499FDF7DEFF07
:102FB0006E49088009A8407D049009A8007D03900F
:102FC00009A8C07C029009A8807C019002A90EC9C2
:102FD000FDF7DEFF6549486009A8407E049009A816
:102FE000007E039009A8C07D029009A8807D019011
:102FF00002A90EC9FDF7E2FF5C49886009A8407F7D
:10300000049009A8007F039009A8C07E029009A837
:10301000807E019002A90EC9FDF7D0FF5349C86018
:103020009DF8450004909DF84400039009A8C07FD6
:10303000029009A8807F019002A90EC9FDF7BEFF8A
:103040004A4908619DF8490004909DF848000390A2
:103050009DF8470002909DF84600019002A90EC914
:10306000FDF7ACFF414948619DF84D0004909DF883
:103070004C0003909DF84B0002909DF84A0001908F
:1030800002A90EC9FDF79AFF384988619DF85100E1
:1030900004909DF8500003909DF84F0002909DF819
:1030A0004E00019002A90EC9FDF788FF2F49C861A3
:1030B000A7E00DA8FDF79AFF2D4A03C20FA8FDF760
:1030C00095FF2B4AC2E902019DF8470004909DF844
:1030D000460003909DF8450002909DF84400019041
:1030E00002A90EC9FDF754FF214908619DF84B0064
:1030F00004909DF84A0003909DF8490002909DF8C5
:103100004800019002A90EC9FDF742FF1849486125
:1031100013A8FDF76BFF164AC2E906019DF8570098
:1031200004909DF8560003909DF8550002909DF87C
:103130005400019002A90EC9FDF740FF0C49086236
:103140009DF85B0004909DF85A0003909DF859008B
:1031500002900FE056555535AE4600205655554461
:10316000AAAAAA06AAAAAA03565555FEC048002034
:10317000E04800209DF85800019002A90EC9FDF713
:103180001DFFFA4948629DF85F0004909DF85E00BB
:1031900003909DF85D0002909DF85C00019002A9EB
:1031A0000EC9FDF70BFFF14988629DF8630004909A
:1031B0009DF8620003909DF8610002909DF8600008
:1031C000019002A90EC9FDF7F9FEE849C8629DF811
:1031D000670004909DF8660003909DF865000290DA
:1031E0009DF86400019002A90EC9FDF7E7FEDF49D2
:1031F000086306E0CF220DA9DD4809F011FE00E0CA
:1032000000BF00BF00BFFEF7D9BF10B50446552C64
:1032100044D008DC112C0DD0222C14D0332C1BD020
:10322000442C58D132E0662C1FD0772C26D0882C25
:1032300051D127E01120FEF7A2FFCE48C07B401CF1
:10324000CC49C87348E0CB48407B401CC94948730F
:103250002220FEF78CFE3FE0C648007B401CC5499B
:1032600008733320FEF705FD36E06620FEF787FF82
:10327000C048C07B401CBF49C8732DE07720FEF7D3
:1032800076FE29E08820FEF7F4FC25E0FEF7F2F94F
:10329000B9484078401CB84948701DE0B74AD17B16
:1032A000907BFDF763FEB3494882B44A517C107CA1
:1032B000FDF75CFEAF498882B04AD17C907CFDF777
:1032C00055FEAC49C882AD4A517D107DFDF74EFEDA
:1032D000A849088300E000BF00BF10BD2DE9F14FF1
:1032E00086B0002005900490039002900190002782
:1032F00000244FF0FF0982460025804600268346C1
:103300000698FEF7E3F80290069801280BD00228F1
:1033100004D003280CD0042814D10EE0984805905E
:10332000984804900FE098480590984804900AE067
:10333000974805909748049005E09748059097486E
:10334000049000E000BF00BF029800286FD000206A
:103350000390B7E305980078019091490198D1F85E
:1033600010210F3188548E48D0F81001401C0F39BD
:10337000C1F810010846D0F8100101280AD108460A
:10338000C07B132806D00846C07B102802D00698C0
:10339000FEF72FF98248D0F81001022846D3804862
:1033A000807B002844D17E4A117CD07BFDF7DEFD76
:1033B000074641F2CD31781A8F420FD009DCB7F5BC
:1033C000805F29D06FF480503844C8B10F2829D1CC
:1033D0001CE01C280ED01D2824D105E07048078071
:1033E000FF206F49887321E06D480780FF206C49FA
:1033F00088731BE06A480780FF206949887315E0DD
:1034000067480780FF20664988730FE0644807809B
:10341000FF206349887309E061480780FF20604905
:10342000887303E00698FEF7E4F800BF46E34EE336
:103430005B48008841F2CD3188420AD05848008864
:1034400041F2EA31884204D055480088491E88423A
:103450007DD15348D0F81001042817D1504A917CEF
:10346000507CFDF783FD04464FEA9439C4F30D0AFE
:10347000B4F5404F06D14A48448080F80490A0F843
:1034800006A01BE30698FEF7B4F817E34448D0F80B
:1034900010010428CAD94248D0F8100106283BD1AF
:1034A0003F4A117DD07CFDF761FD05463C48008810
:1034B00041F2CD3188420DD1092D02D13848058124
:1034C000FCE22C48007C401C2A4908740698FEF750
:1034D00090F8F3E23248008841F2EA3188420DD197
:1034E000392D02D12E480581E8E22248007C401C9B
:1034F000204908740698FEF77CF8DFE2F92D02D126
:1035000027480581DAE21B48007C401C19490874F1
:103510000698FEF76EF8D1E22148D0F8100106288F
:1035200084D91F48D0F8100108283BD11C4A917D4E
:10353000507DFDF71BFD8046A8F54240C23838B1EA
:10354000A0F6080040B91648A0F80A800DE0C3E0D4
:103550001348A0F80A8008E00648007C401C054992
:1035600008740698FEF745F800BFA7E2E04800207F
:1035700018490020904600204800002040440020C8
:1035800000F0143000E0143000F0123000E012308F
:1035900000F0113000E0113000F0153000E015307F
:1035A00008420020F748D0F81001082888D9F548CB
:1035B000D0F810110089C01D81428AD1F248807B69
:1035C000401CF1498873EF4AD2F81021921EED4B4E
:1035D0000F33995CEB4AD2F81021521E985CFDF72C
:1035E000C5FC0646E7480089401E009000EBD070FD
:1035F0004110E4481530FDF7CAFD83465E454AD1C7
:10360000E04A117ED07DFDF7B1FC49F69A2188424F
:1036100013D001214DF2D220FDF7ADFC0146009000
:103620000498FDF719FF00214DF2D220FDF7A3FC0D
:10363000014600900498FDF70FFFD248868100886C
:10364000D2490880CF4840884880CE480079087128
:10365000CC48C088C880CB4800890881C9484089C7
:103660004881C84880898881C64A117ED07DFDF78F
:103670007DFCC649C881C3480089421FC149193130
:10368000C248103009F087FB0698FDF7B2FF112001
:10369000FFF7BBFD12E2BB4A117ED07DFDF766FC51
:1036A00049F69A21884213D0012142F62D50FDF7A8
:1036B00062FC014600900498FDF7CEFE002142F620
:1036C0002D50FDF758FC014600900498FDF7C4FE0C
:1036D0000698FDF78EFFF1E1AA48008841F201014A
:1036E000884279D1A748D0F81001042813D1A54AFF
:1036F000917C507CFDF73AFC04464FEA9439C4F3C0
:103700000D0AB4F5404FC5D19E48448080F804901E
:10371000A0F806A0D2E19B48D0F810010428B9D93E
:103720009848D0F8100106280ED1964A117DD07C19
:10373000FDF71CFC0546052D02D192480581BDE12F
:103740000698FDF756FFB9E18E48D0F810110089B0
:10375000C01D814245D18B4AD2F81021921E894B5F
:103760000F33995C874AD2F81021521E985CFDF7FE
:10377000FDFB064683480089401E009000EBD07098
:10378000411080481530FDF702FD83465E4524D187
:103790007C48868100887E4908807A484088488035
:1037A0007848007908717748C088C88075480089D2
:1037B000088174488089C88172480089421E714915
:1037C000153173480A3009F0E6FA0698FDF711FF43
:1037D0002220FFF71AFD71E11AE00698FDF709FFB4
:1037E0006CE16848D0F81001072893D36548D0F8F9
:1037F00010010A288ED86348D0F81001401E614994
:103800000F31085CAA2885D00698FDF7F2FE55E135
:103810005C48008841F21001884279D15948D0F8BB
:103820001001042813D1574A917C507CFDF79EFB70
:1038300004464FEA9439C4F30D0AB4F5404FCAD197
:103840005048448080F80490A0F806A036E14D4826
:10385000D0F810010428BED94A48D0F81001062833
:103860000ED1484A117DD07CFDF780FB0546052D21
:1038700002D14448058121E10698FDF7BAFE1DE119
:103880004048D0F810110089C01D814245D13D4A01
:10389000D2F81021921E3B4B0F33995C394AD2F873
:1038A0001021521E985CFDF761FB064635480089E1
:1038B000401E009000EBD070411032481530FDF7EB
:1038C00066FC83465E4524D12E48868100883149B6
:1038D00008802C48408848802A4800790871294887
:1038E000C088C88027480089088126488089C88107
:1038F00024480089421E2349153126480A3009F020
:103900004AFA0698FDF775FE3320FFF77EFCD5E0F6
:103910001AE00698FDF76DFED0E01A48D0F81001C5
:10392000072893D31748D0F810010A288ED81548D5
:10393000D0F81001401E13490F31085CAA2802D0AC
:103940000698FDF756FEB9E00E480088B0F5805F96
:1039500017D10C48D0F8100104281DD1094A917CD8
:10396000507CFDF703FB04464FEA9439C4F30D0A7B
:10397000B4F5404F05D10348448080F80490A0F886
:1039800006A09BE008420020904600201C43002037
:103990002044002030440020FE48D0F810010428C4
:1039A0000ED9FC48D0F81001062813D1F94A117D30
:1039B000D07CFDF7DBFA05460B2D02D1F5480581D9
:1039C0007CE0F548007C401CF34908740698FDF73C
:1039D00010FE73E0EF48D0F8100106286ED9ED48CC
:1039E000D0F81001082816D1EA4A917D507DFDF7E4
:1039F000BDFA804645F25550804503D1E548A0F810
:103A00000A805BE0E448007C401CE34908740698A7
:103A1000FDF7EFFD52E0DF48D0F8100108284DD93E
:103A2000DC48D0F810110089C01D814246D1D94A26
:103A3000D2F81021921ED74B0F33995CD54AD2F899
:103A40001021521E985CFDF791FA0646D148008974
:103A5000401E009000EBD0704110CE481530FDF7AD
:103A600096FB83465E4526D1CA4886810088CB49AD
:103A70000880C84840884880C64800790871C54811
:103A8000C088C880C34800890881C24840894881ED
:103A9000C04880898881BF480089C21EBD4917314E
:103AA000BE480E3009F077F90698FDF7A2FD5520C3
:103AB000FFF7ABFB02E00698FDF79BFD0398401C67
:103AC00080B20390DDE902108842FFF643AC07B0F4
:103AD000BDE8F08F2DE9F14F86B0002005900490ED
:103AE000039002900190002700244FF0FF098246C6
:103AF00000258046002683460698FDF7E7FC0290E5
:103B0000069801280BD0022804D003280CD00428E2
:103B100014D10EE0A2480590A24804900FE0A248FC
:103B20000590A24804900AE0A1480590A14804909D
:103B300005E0A1480590A148049000E000BF00BF47
:103B4000029800286FD000200390BBE3059800780E
:103B500001909B490198D1F810210F318854984861
:103B6000D0F81001401C0F39C1F810010846D0F8F8
:103B7000100101280AD10846C07B132806D0084648
:103B8000C07B102802D00698FDF733FD8C48D0F892
:103B90001001022846D38A48807B002844D1884AF5
:103BA000117CD07BFDF7E2F9074641F2CD31781A5E
:103BB0008F420FD009DCB7F5805F29D06FF48050B9
:103BC0003844C8B10F2829D11CE01C280ED01D286C
:103BD00024D105E07A480780FF207949887321E0E5
:103BE00077480780FF20764988731BE07448078078
:103BF000FF207349887315E071480780FF207049E2
:103C000088730FE06E480780FF206D49887309E0D4
:103C10006B480780FF206A49887303E00698FDF728
:103C2000E8FC00BF4AE352E36548008841F2CD3129
:103C300088420AD06248008841F2EA31884204D0C2
:103C40005F480088491E88427DD15D48D0F8100148
:103C5000042817D15A4A917C507CFDF787F9044615
:103C60004FEA9439C4F30D0AB4F5404F06D15448D5
:103C7000448080F80490A0F806A01FE30698FDF7A2
:103C8000B8FC1BE34E48D0F810010428CAD94C48B0
:103C9000D0F8100106283BD1494A117DD07CFDF7B0
:103CA00065F905464648008841F2CD3188420DD17C
:103CB000092D02D14248058100E33748007C401CB1
:103CC000354908740698FDF794FCF7E23C480088F3
:103CD00041F2EA3188420DD1392D02D138480581AF
:103CE000ECE22D48007C401C2B4908740698FDF737
:103CF00080FCE3E2F92D02D131480581DEE226485D
:103D0000007C401C244908740698FDF772FCD5E23B
:103D10002B48D0F81001062884D92948D0F8100182
:103D200008281FD1264A917D507DFDF71FF9804656
:103D3000A8F54240C23838B1A0F6080040B9204882
:103D4000A0F80A800DE0C1E01D48A0F80A8008E054
:103D50001148007C401C104908740698FDF749FC86
:103D600000BFABE21648D0F81001082885D91448E6
:103D7000D0F810110089C01D81429DD10648807B7A
:103D8000401C054988730E4AD2F81021521E0C4B74
:103D90000F3317E0084200209046002040440020E6
:103DA00000F0143000E0143000F0123000E0123067
:103DB00000F0113000E0113000F0153000E0153057
:103DC00058440020995CA3F10F02D2F81021921EF2
:103DD000985CFDF7CBF80646FE480089401E00902F
:103DE00000EBD0704110FB481530FDF7D0F9834649
:103DF0005E454AD1F74A117ED07DFDF7B7F849F606
:103E00009A21884213D001214DF2D220FDF7B3F858
:103E1000014600900498FDF71FFB00214DF2D220CF
:103E2000FDF7A9F8014600900498FDF715FBE94855
:103E300086810088E8490880E64840884880E5484F
:103E400000790871E348C088C880E2480089088189
:103E5000E04840894881DF4880898881DD4A117EB9
:103E6000D07DFDF783F8DC49C881DA480089421F1C
:103E7000D8491931D848103008F08DFF0698FDF761
:103E8000B8FB6620FFF7C1F918E2D24A117ED07D57
:103E9000FDF76CF849F69A21884213D0012142F6C9
:103EA0002D50FDF768F8014600900498FDF7D4FA0C
:103EB000002142F62D50FDF75EF80146009004986F
:103EC000FDF7CAFA0698FDF794FBF7E1C1480088B0
:103ED00041F20101884279D1BE48D0F8100104288E
:103EE00013D1BC4A917C507CFDF740F804464FEA60
:103EF0009439C4F30D0AB4F5404FC5D1B548448098
:103F000080F80490A0F806A0D8E1B248D0F81001DB
:103F10000428B9D9AF48D0F8100106280ED1AD4A0F
:103F2000117DD07CFDF722F80546052D02D1A94868
:103F30000581C3E10698FDF75CFBBFE1A548D0F819
:103F400010110089C01D814245D1A24AD2F810212A
:103F5000521EA04B0F33995C9E4AD2F81021921E3C
:103F6000985CFDF703F806469A480089401E0090C9
:103F700000EBD070411097481530FDF708F98346E3
:103F80005E4524D1934886810088944908809148F1
:103F9000408848808F48007908718E48C088C88062
:103FA0008C48008908818B488089C88189480089AC
:103FB000421E8849153189480A3008F0ECFE0698FF
:103FC000FDF717FB7720FFF720F977E11AE0069855
:103FD000FDF70FFB72E17F48D0F81001072893D35B
:103FE0007C48D0F810010A288ED87A48D0F8100101
:103FF000401E78490F31085CAA2885D00698FDF745
:10400000F8FA5BE17348008841F21001884279D1E7
:104010007048D0F81001042813D16E4A917C507C6E
:10402000FCF7A4FF04464FEA9439C4F30D0AB4F533
:10403000404FCAD16748448080F80490A0F806A099
:104040003CE16448D0F810010428BED96148D0F89A
:10405000100106280ED15F4A117DD07CFCF786FF47
:104060000546052D02D15B48058127E10698FDF73D
:10407000C0FA23E15748D0F810110089C01D8142D1
:1040800045D1544AD2F81021521E524B0F33995C3D
:10409000504AD2F81021921E985CFCF767FF064642
:1040A0004C480089401E009000EBD07041104948F8
:1040B0001530FDF76CF883465E4524D1454886816E
:1040C0000088474908804348408848804148007933
:1040D00008714048C088C8803E48008908813D4832
:1040E0008089C8813B480089421E3A4915313C48C5
:1040F0000A3008F050FE0698FDF77BFA8820FFF79B
:1041000084F8DBE01AE00698FDF773FAD6E0314850
:10411000D0F81001072893D32E48D0F810010A28B0
:104120008ED82C48D0F81001401E2A490F31085C67
:10413000AA2885D00698FDF75CFABFE025480088DC
:10414000B0F5805F17D12348D0F81001042813D1AF
:10415000204A917C507CFCF709FF04464FEA9439D1
:10416000C4F30D0AB4F5404F05D11A48448080F8D5
:104170000490A0F806A0A1E01648D0F81001042889
:104180000ED91448D0F81001062813D1114A117D18
:10419000D07CFCF7EBFE05460B2D02D10D480581C6
:1041A0008CE01048007C401C0E4908740698FDF70E
:1041B00020FA83E00748D0F8100106287ED9054888
:1041C000D0F81001082821D1024A917D507DFCF7DA
:1041D000CDFE09E0584400206C45002070460020C8
:1041E0008046002090460020804645F2555080458C
:1041F00003D1F948A0F80A8060E0F848007C401C30
:10420000F64908740698FDF7F4F957E0F248D0F83B
:104210001001082852D9F048D0F810110089C01DAB
:1042200081424BD1EC4AD2F81021521EEA4B0F3397
:10423000995CE94AD2F81021921E985CFCF796FE30
:104240000646E5480089401E009000EBD070411002
:10425000E1481530FCF79BFF83465E4526D1DE48DA
:1042600086810088DE490880DB4840884880DA483B
:1042700000790871D848C088C880D748008908816B
:10428000D54840894881D44880898881D2480089AE
:10429000C21ED1491731D2480E3008F07CFD069875
:1042A000FDF7A7F95520FEF7B0FF07E0CB48007CEB
:1042B000401CCA4908740698FDF79BF90398401CF6
:1042C00080B20390DDE902108842FFF63FAC07B0F0
:1042D000BDE8F08F2DE9FC5F054600200190002627
:1042E000002700908046002481462846FDF7EEF81E
:1042F00007462846FDF7EAF80746012D09D0022DAA
:1043000004D0032D08D0042D0CD108E0B54801904D
:1043100009E0B548019006E0B448019003E0B448D4
:10432000019000E000BF00BF002F73D000267AE1AB
:10433000019800780090AF490098D1F8A020D1F8FA
:10434000A010491CAB4BC3F8A01003F11101885415
:10435000B9F1090F7ED2DFE809F0052C4C688AB765
:10436000ED7DFD00A348D0F8A000012807D1A148A9
:10437000407CEB281CD02846FDF73BF918E09D480F
:10438000D0F8A000022813D39A4A917C507CFCF705
:10439000EDFD80464EF69030804506D19548A0F858
:1043A000008001209449087002E02846FDF721F9B9
:1043B00033E19048D0F8A000042819D18D4A117D2E
:1043C000D07CFCF7D3FD0446152C03D0452C01D03E
:1043D000852C05D18748448002208749087007E072
:1043E00086488078401C854988702846FDF701F989
:1043F00013E18048D0F8A000052815D17D4890F839
:1044000015A0BAF1290F06D180F804A003207A493B
:10441000087008E00AE179488078401C7749887084
:104420002846FDF7E6F800BFF7E07248D0F8A00094
:1044300007281BD16F4AD17D907DFCF797FD8246FE
:104440004EF24D10824508D16A48A0F80AA0042017
:10445000694900E0E0E0087007E068488078401CA7
:10446000664988702846FDF7C4F800BFD5E061486A
:10447000D0F8A000082826D15E4890F818A0BAF11C
:104480003C0F0DD0BAF1690F06D0BAF1A50F0BD1D0
:1044900010205849487311E04020564948730DE0F8
:1044A00080205449487309E054488078401C53499F
:1044B00088702846FDF79DF8BDE8FC9F00BF0520E9
:1044C0004D49087000BFA8E04A48D0F8A010407BD2
:1044D0000A3081422DD1474AD2F8A020521E454BC6
:1044E0001133995C434AD2F8A020921E985CFCF7E5
:1044F0003DFD83463F48417B1930FCF79EFE8246D6
:10450000DA450DD13B48A0F80EA0407B421E394948
:104510001A313B4808F03FFC06203749087007E095
:1045200036488078401C354988702846FDF761F888
:1045300000BF72E02F48D0F8A010407B0C308142C1
:1045400025D12C4A527B0B322A4B1133995C294AD4
:10455000527B00E01CE00A32985CFCF707FD8246C3
:104560002448407BC11D23481330FCF73AFE8346A4
:10457000D34503D108202049087007E01F48807800
:10458000401C1E4988702846FDF733F800BF44E000
:104590001848D0F8A010407B0E3081423BD1154A1C
:1045A000527B0D32134B1133995C124A527B0C3201
:1045B000985CFCF7DBFC824640F6D710824521D19F
:1045C0002846FDF716F84420FEF71FFE0B4800783A
:1045D000401C0A4908701DE0584400209046002005
:1045E0004044002000F0143000F0123000F0113090
:1045F00000F01530284C00204C000020480000201E
:10460000D34C0020FE488078401CFD498870284625
:10461000FCF7EFFF00BF00E000BF00BFF94890F8D3
:104620000090701C86B2BE42FFF682AE00BF43E728
:1046300070B500240025F448807800287ED1EB2056
:10464000F249087090204870002088708020C8705F
:1046500012200871EB2048719021EC4881710B20E9
:10466000EA49C871B021E9480172002141728172A2
:10467000FF21C17201731F20E449487300BF04E0A9
:10468000AA21E2480E300155641C182CF8D30020F2
:10469000DE4981F82600002404E0F021DB482730C1
:1046A0000155641C5C2CF8D30F21D84880F8821087
:1046B000502180F82B10D2480178D44880F86D1032
:1046C000CF484178D14880F86E10D14890F8421018
:1046D000CE4880F87610CE4890F8490000F00F01DF
:1046E000CB4890F8490061F31F10C84981F8770062
:1046F0002B21C6482D30FCF74AFD054600212846EF
:10470000FCF739FCC14981F8830001212846FCF7F8
:1047100032FCBE4981F884008321BC48801CFCF730
:1047200060FD06460121FCF726FCB84981F88500AA
:104730008321B648801CFCF754FD00E082E0064669
:104740000021FCF718FCB14981F88600092081F8A6
:104750008700D72081F88800EB2081F8890090211C
:10476000AA4880F88A10002180F88B10802180F8F8
:104770008C10122180F88D10EB2180F88E10902182
:1047800080F88F100B2180F89010B02180F89110E4
:10479000012180F8921080F89310FF2180F8941086
:1047A00080F895101F2180F89610002404E0AA21BB
:1047B000964897300155641C182CF8D30121934872
:1047C00080F8AF10002404E0F0219048B03001558B
:1047D000641C5C2CF8D30F218C4880F80B112B2122
:1047E000B630FCF7D4FC054600212846FCF7C3FB95
:1047F000864981F80C0101212846FCF7BCFB0146E3
:10480000824880F80D1183218B30FCF7EAFC0646C4
:104810000121FCF7B0FB7D4981F80E0183217B4823
:104820008B30FCF7DEFC06460021FCF7A4FB774941
:1048300081F80F010921754880F81011D72180F8FF
:1048400011115AE3EB207349087090204870002042
:1048500088708020C87012200871EB204871902168
:104860006C4881710B206B49C871B0216948017295
:10487000002141728172FF21C17201731F206549BD
:104880004873002404E0AA2162480E300155641CDC
:10489000182CF8D300205F4981F826002B215D48B1
:1048A0002D30FCF774FC054600212846FCF763FB1D
:1048B000584981F8830001212846FCF75CFB5549E3
:1048C00081F8840083215348801CFCF78AFC06464B
:1048D0000121FCF750FB4F4981F8850083214D48A9
:1048E000801CFCF77EFC06460021FCF744FB49498E
:1048F00081F88600092081F88700D72081F8880098
:10490000EB2081F889009021424880F88A1000212C
:1049100080F88B10802180F88C10122180F88D1087
:10492000EB2180F88E10902180F88F100B2180F8F9
:104930009010B02180F89110002180F8921080F83A
:104940009310FF2180F8941080F895101F2180F8B3
:104950009610002404E0AA212E4897300155641CCB
:10496000182CF8D301212B4880F8AF102B21B6303A
:10497000FCF70DFC054600212846FCF7FCFA25490A
:1049800081F80C0101212846FCF7F5FA014621487F
:1049900080F80D1183218B30FCF723FC06460121A2
:1049A000FCF7E9FA1B4981F80E01832119488B3085
:1049B000FCF717FC06460021FCF7DDFA154981F8E3
:1049C0000F010921134880F81011D72180F8111127
:1049D000EB20104981F8120190210E4880F8131144
:1049E000002180F81411802180F81511122180F81F
:1049F0001611EB2180F81711902180F818110BE0A7
:104A0000480000204C000020B4410020744D0020DC
:104A1000EC540020864E00200B2180F81911B021A3
:104A200080F81A11002180F81B1180F81C11FF2159
:104A300080F81D1180F81E111F2180F81F1100241D
:104A400003E0AA21FE480155641C182CF9D3022169
:104A5000FC4880F838112B2100F23F10FCF797FB3F
:104A6000054600212846FCF786FAF64981F89501AB
:104A700001212846FCF77FFA0146F24880F896119A
:104A8000832100F58A70FCF7ACFB06460121FCF798
:104A900072FAEC4981F897018321E9480C38FCF758
:104AA000A0FB06460021FCF766FAE64981F898016A
:104AB0000921E44880F89911D72180F89A11EB2058
:104AC000E04981F89B019021DE4880F89C1100218B
:104AD00080F89D11802180F89E11122180F89F118D
:104AE000EB2180F8A011902180F8A1110B2180F812
:104AF000A211B02180F8A311002180F8A41180F840
:104B0000A511FF2180F8A61180F8A7111F2180F8B8
:104B1000A811002404E0AA21C94889300155641C69
:104B2000182CF8D30321C74880F8C1112B2100F5B8
:104B3000E470FCF72CFB054600212846FCF71BFA25
:104B4000C04981F81E0201212846FCF714FA0146EB
:104B5000BC4880F81F12832100F29D10FCF741FB36
:104B600006460121FCF707FAB64981F820028321A5
:104B7000B3487D30FCF735FB06460021FCF7FBF916
:104B8000B04981F821020921AE4880F82212D721CC
:104B900080F82312EB20AB4981F824029021A94828
:104BA00080F82512002180F82612802180F8271233
:104BB000122180F82812EB2180F82912902180F828
:104BC0002A120B2180F82B12B02180F82C12002120
:104BD00080F82D1280F82E12FF2180F82F1280F815
:104BE00030121F2180F83112002403E0AA219648D8
:104BF0000155641C182CF9D30421924880F84A12FC
:104C00002B2100F25120FCF7C2FA0546002128466C
:104C1000FCF7B1F98B4981F8A70201212846FCF77E
:104C2000AAF90146874880F8A812832100F22620BD
:104C3000FCF7D7FA06460121FCF79DF9814981F876
:104C4000A902832180480C38FCF7CBFA06460021E4
:104C5000FCF791F97B4981F8AA020921794880F88B
:104C6000AB12D72180F8AC12EB20764981F8AD0267
:104C70009021744880F8AE12002180F8AF12802194
:104C800080F8B012122180F8B112EB2180F8B21234
:104C9000902180F8B3120B2180F8B412B02180F873
:104CA000B512002180F8B61280F8B712FF2180F803
:104CB000B81280F8B9121F2180F8BA12002404E05B
:104CC000AA21614889300155641C182CF8D30521AC
:104CD0005C4880F8D3122B2100F2DA20FCF757FA57
:104CE000054600212846FCF746F9564981F830036D
:104CF00001212846FCF73FF90146524880F831135C
:104D0000832100F2AF20FCF76CFA06460121FCF784
:104D100032F94C4981F8320383214B487D30FCF74E
:104D200060FA06460021FCF726F9464981F833036C
:104D30000921444880F83413D72180F83513EB203B
:104D4000404981F8AD0290213E4880F8AE12002122
:104D500080F8AF12802180F8B012122180F8B112D1
:104D6000EB2180F83B13902180F83C130B2180F855
:104D70003D13B02180F83E13002180F83F1380F8E6
:104D80004013FF2180F8411380F842131F2180F85F
:104D90004313002403E0AA212C480155641C182C5D
:104DA000F9D30621274880F85C132B2100F26330E9
:104DB000FCF7EDF9054600212846FCF7DCF821490F
:104DC00081F8B90301212846FCF7D5F801461D48B2
:104DD00080F8BA13832100F54E70FCF702FA0646FC
:104DE0000121FCF7C8F8174981F8BB038321174854
:104DF0000C38FCF7F6F906460021FCF7BCF811491F
:104E000081F8BC0309210F4880F8BD13D72180F831
:104E1000BE13EB200B4981F8BF039021094880F8AD
:104E2000C013002180F8C113802180F8C213122121
:104E300080F8C313EB2180F8C413902108E0000030
:104E4000A64F0020864E0020B8500020CA510020F6
:104E500080F8C5130B2180F8C613B02180F8C71362
:104E6000002180F8C81380F8C913FF2180F8CA1305
:104E700080F8CB131F2180F8CC13002403E0AA2173
:104E800046480155641C182CF9D30721444880F882
:104E9000E5132B2100F57B70FCF779F9054600211D
:104EA0002846FCF768F83E4981F84204012128466B
:104EB000FCF761F801463A4880F84314832100F278
:104EC000C130FCF78EF906460121FCF754F834494D
:104ED00081F84404832131480C38FCF782F90646F6
:104EE0000021FCF748F82E4981F8450409212C4897
:104EF00080F84614D72180F8471470BD00B52948C2
:104F0000C078012812D100202649C8700846807850
:104F100030B94FF4897224492448FCF7ACFA05E013
:104F20004FF489621E492148FCF7A5FA00BD2DE91E
:104F3000F04304460027B84600250026A94620462F
:104F4000FCF7C4FA0646012C0AD0022C04D0032C2C
:104F50000AD0042C10D10BE0154FDFF858800CE07C
:104F6000154FDFF8488008E0144FDFF8548004E064
:104F7000144FDFF8548000E000BF00BF5EB1002591
:104F800007E097F8009049464046FCF765FA681C30
:104F900085B2B542F5DBBDE8F08300005352002036
:104FA000864E0020B4410020744D002000E01230F5
:104FB00000F0143000E0143000F0123000F0113036
:104FC00000E0113000F0153000E0153038B504462F
:104FD0006A460021204606F01BF938BD10B510B115
:104FE00001280AD104E0FE4C04EB01131A8005E00D
:104FF000FC4C04EB01131A8000E000BF00BF10BDA1
:1050000070B505460C46002615B1012D0CD105E002
:10501000F34901EB04100088C6B206E0F14901EB48
:1050200004100088C6B200E000BF00BF0120FFF7F7
:10503000CDFF304670BD70B5054602260A242246D3
:1050400031462846FFF7CAFF3220FFF7BFFF03268D
:105050000124224631462846FFF7C0FF0120FFF712
:10506000B5FF00BF0224224631462846FFF7B6FFAF
:105070000120FFF7ABFF04260120FFF7A7FF0E2654
:105080000C24224631462846FFF7A8FF0120FFF7EF
:105090009DFF00BF0324224631462846FFF79EFFAE
:1050A0000120FFF793FF02260524224631462846B9
:1050B000FFF794FF3220FFF789FF04260A242246D7
:1050C00031462846FFF78AFF0520FFF77FFF70BDB6
:1050D0002DE9F04706460C4603274FF002084246EA
:1050E00039463046FFF77AFF0027207940F08002EA
:1050F00039463046FFF772FF20684FEAC0090321A6
:105100004846FBF7C8FF8246524639463046FFF70D
:1051100065FF02214846FBF7BEFF824652463946EC
:105120003046FFF75BFF01214846FBF7B4FF82469C
:10513000524639463046FFF751FF00214846FBF7FB
:10514000AAFF8246524639463046FFF747FF002500
:1051500006E0601D425D39463046FFF73FFF6D1C9B
:10516000082DF6D302274FF0030842463946304651
:10517000FFF734FF0E274FF00C0842463946304601
:10518000FFF72CFFBDE8F0872DE9FF4104464FF003
:105190000108002506E041462046FFF731FF0DF8E3
:1051A00005006D1C0D2DF6D39DF8010040059DF8FE
:1051B000021040EA41309DF8031040EA41109DF88A
:1051C000041040EAD106884800EB041006609DF800
:1051D000000000F00F00844901EB041108719DF8F4
:1051E0000500814901EB041148719DF806107E48C5
:1051F00000EB041081719DF807107B4800EB041050
:10520000C1719DF80810784800EB041001729DF8F8
:105210000910754800EB041041729DF80A1072489D
:1052200000EB041081729DF80B106F4800EB041026
:10523000C1729DF80C106C4800EB04100173012042
:10524000694901EB041148734FF0060805273A46F7
:1052500041462046FFF7C2FEBDE8FF8170B5044617
:10526000042631462046FFF7CBFE054605F0020036
:10527000022802D12046FFF787FF05F00800082822
:105280005ED104EBC400594901EB8000407811283D
:105290000CD104EBC40001EB80004068401C04EB1F
:1052A000C401524A02EB810148603DE004EBC400B6
:1052B0004E4901EB8000407822280CD104EBC40059
:1052C00001EB8000C068401C04EBC401474A02EBBC
:1052D0008101C86028E004EBC400444901EB800070
:1052E000407833280CD104EBC40001EB8000406906
:1052F000401C04EBC4013D4A02EB8101486113E00C
:1053000004EBC400394901EB8000407844280BD1FC
:1053100004EBC40001EB8000C069401C04EBC40135
:10532000324A02EB8101C861FF2004EBC4012F4A1D
:1053300002EB81014870012004EBC40102F8210056
:1053400070BD00222A4B1A8001220280002100E059
:10535000491C42F210729142FAD31F22244B1A8048
:10536000C822D230A0F81E2101221A800E2220F875
:10537000C22C04221A80032220F8922C06221A80C2
:10538000412220F8722C07221A80BE2220F8622CBB
:1053900010221A800022C28511221A800022C287A0
:1053A00012221A800022A0F84E2013221A80002216
:1053B000A0F85E2014221A80FF22A0F86E20152289
:1053C0001A80FF22A0F87E2016221A80FF22A0F861
:1053D0008E2017221A80FF22A0F89E20082209E0C2
:1053E0000060199000701990D0520020F0520020F7
:1053F000F0F919301A80AA2220F8522C0F221A80B4
:105400000022C2830E221A800022C2811D221A802D
:105410000022A0F8FE20D238002100E0491C42F210
:1054200010729142FAD30022FE4B1A8002800021B2
:1054300000E0491C42F210729142FAD370470022F8
:10544000F84B1A8001220280002100E0491C42F240
:1054500010729142FAD31F22F24B1A804822A0F810
:10546000F02101221A800C22028204221A800022DA
:10547000A0F8402005221A80FF22A0F85020062222
:105480001A804122A0F8602007221A80BE22A0F8CC
:10549000702008221A801A22A0F8802000221A8088
:1054A00042220280002100E0491C42F21072914227
:1054B000FAD30022DB4B1A8042220280002100E056
:1054C000491C42F210729142FAD30222D54B1A8043
:1054D00003221A8070471FB5014600200BE000F13F
:1054E0001003D04C238001EB03131B88DBB20DF8B3
:1054F0000030431C98B20D28F1DB9DF801305B05AC
:105500009DF8024043EA44339DF8034043EA4413C4
:105510009DF8044043EAD402C34B1A609DF8003062
:1055200003F00F03C04C23719DF8053063719DF8A3
:105530000640BD4B9C719DF80740DC719DF808400A
:105540001C729DF809405C729DF80A409C729DF89F
:105550000B40DC729DF80C401C730123B24C63734A
:10556000B24B1B785B1CB14C23701FBD10B50020E3
:1055700006F0F8FE0320AB490880AD48008EC4B2A7
:1055800004F0010040B1AA48FFF7A5FF0120A5499A
:1055900008800C20A649088204F0020002282BD1C2
:1055A000A4484078112805D1A2484068401CA14970
:1055B00048601CE09F484078222805D19D48C0687B
:1055C000401C9C49C86012E09A484078332805D1B5
:1055D00098484069401C9749486108E095484078E0
:1055E000442804D19348C069401C9249C861FF20F7
:1055F000904948700120087010BDF0B50B4600249A
:1056000037E00A26874F3E801668C6F3CF06A0F81B
:10561000A0600B263E801688082747EA4616A0F8A9
:10562000B06000210CE001F10C067E4F3E80561D5B
:10563000775C01F10C0600EB061637804E1CB1B208
:105640000829F0DB0126774F3E80068200250226DE
:105650003E8004E06E1CB5B20226724F3E80068C7E
:1056600006F00C060C2E02D0B5F5FA6FF2DB661CC4
:10567000B4B29C42C5DBF0BD1EB5014600200BE074
:1056800000F11403674C238001EB03131B88DBB28A
:105690000DF80030431C98B20A28F1DB9DF8003069
:1056A000DB009DF8014043EA54125F4B1A609DF8FD
:1056B00002305D4C63719DF803405B4B9C719DF81B
:1056C0000440DC719DF805401C729DF806405C7238
:1056D0009DF807409C729DF80840DC729DF80940D7
:1056E0001C73524B1B785B1C504C23701EBD2DE964
:1056F000F04104460E4630684FEAC0081020494980
:105700000880307940F08000A4F800011120088062
:1057100003214046FBF7BFFCA4F8100112204149C9
:10572000088002214046FBF7B6FCA4F820011320B4
:105730003C49088001214046FBF7ADFCA4F830014C
:1057400014203849088000214046FBF7A4FCA4F847
:10575000400100250CE005F1150032490880701D5C
:10576000415D05F1150004EB00100180681C85B255
:10577000082DF0DB01202B49088020820027022021
:10578000088004E0781C87B2022026490880208C1B
:1057900000F00C000C2802D0B7F5FA6FF2DBBDE880
:1057A000F08110B52021204807F08EFB224800210F
:1057B000016041608160C16020480160416081609A
:1057C000C1601F48016041608160C1604821194883
:1057D00007F07AFBFF201749487001200870FF216D
:1057E000144880F825100120124981F8240015483A
:1057F00011490860082008711820487138210E48A6
:1058000081713521C1713121017241720021817292
:10581000C172E72101730C4808490860082008712B
:105820000A4815E0F0F91930D05200204D00002050
:1058300000A01930F05200203853002048530020B7
:1058400068530020FF030200FF010200FF02040072
:10585000FE49086008200871012048715521FB4865
:105860008171C171017241728172C1720173F84814
:10587000F8490860082008715521F6488171C17106
:10588000017241728172C172017310BD10B511298C
:1058900002D0222922D110E00022C0EB4013EE4CAE
:1058A00044F82320C0EB401304EB83035A60C0EBA1
:1058B000401304EB83031A7211E00022C0EBC00313
:1058C000E64C44F82320C0EBC00304EB83035A608A
:1058D000C0EBC00304EB83031A7200E000BF00BFFB
:1058E00010BD1FB5002400BF70E1DD4800EB0410BF
:1058F000407B012840D10020D94901EB04114873B5
:10590000D74800EB04130FCB8DE80F00009820F070
:10591000FF00B0F5013F7DD10098B0F5013F31D1D6
:105920009DF80400082828D19DF80500382824D1C6
:10593000C4EB4410C84901EB80000A30C4EB4411A9
:10594000C54A02EB810149680844DDF80510016091
:10595000DDF809104160C4EB4411009842F82100C1
:10596000C4EB4410114601EB800040680830C4EBE2
:10597000441102EB8101486026E111212046FFF726
:1059800085FF21E1B7490098884263D19DF8040062
:105990000828F1D1C4EB4410AF4901EB80000A3074
:1059A000C4EB4411AC4A02EB810149680844DDF8BC
:1059B00005100160DDF809104160C4EB4411009846
:1059C00042F82100C4EB4410114601EB800040680E
:1059D0000830C4EB441102EB81014860C4EB441170
:1059E00002EB810101F10B006E21FBF7ECFBC4EB34
:1059F0004411994A02EB81010872C4EB441011462C
:105A000001EB8000017A9DF80C0081421DD1C4EBAE
:105A1000441000E054E0114601EB8000406870281B
:105A200013D10120C4EB441102EB81014872C4EB95
:105A3000441002EB80017C228748F83007F0F0F92F
:105A400011212046FFF722FFBEE011212046FFF77B
:105A50001DFFB9E0C4EB44107F4A52F82000401CFF
:105A60000099814288D19DF80400082823D1C4EB15
:105A70004410114601EB80000A30C4EB441102EBE4
:105A8000810149680844DDF805100160DDF809105E
:105A90004160C4EB4411009842F82100C4EB44106B
:105AA000114601EB800040680830C4EB441102EB62
:105AB0008101486088E011212046FFF7E7FE83E07E
:105AC000009820F0FF006249491C88427CD1009870
:105AD00088422DD19DF80400082824D1C4EBC400CD
